:100000000C94EC230C941D240C941D240C941D249E
:100010000C941D240C941D240C941D240C94ADCB25
:100020000C941D240C941D240C941D240C946CD24F
:100030000C941D240C941D240C941D240C9485DD1B
:100040000C941D240C941D240C941D240C941D242C
:100050000C941D240C941D240C941D240C941D241C
:100060000C941D240C9452CC0C9481CC0C941D2423
:100070000C941D240C941D240C941D240C941D24FC
:100080000C941D240C941D240C941D240C941D24EC
:100090000C94BCCC0C94EBCC0C941D240C94E1D0AF
:1000A0000C941D240C94B2DD0C941D240C941D247E
:1000B0000C941D240C941D240C94DFDD0C941D2441
:1000C0000C941D240C941D240C943CD70C9426CD28
:1000D0000C9455CD0C941D240C9490CD0C94BFCD54
:1000E0000C941D24AE38B638BF38C738CF38D7384F
:1000F000DF38E738EF38F738FF38073917390F3965
:100100005A62076242621062246242625A6242622A
:100110005A6247620B632763136444648E64DF642E
:10012000EC642865B165DB66C067D767DF67C867C1
:10013000D067E767376813680A6801681C68256834
:100140002E68EF67F867B96750684068606869684B
:100150007268B9677B68F9707B6DBC70F970CD739C
:10016000217191717973B57C1C7DA97D2B7EC77E31
:10017000177D647C307F287F387F3D7F5E7F507F96
:100180006A7F497F577F657F717F787FC27F857FD8
:10019000DE80FB80108111836E81D781468183814F
:1001A00011831183118311831183118311831183AF
:1001B000118311831183118311831183118311839F
:1001C0000582118314822C8231821982EC84EC84A2
:1001D000F5840285FB84F584FB84FB84FB842985FC
:1001E000FB84FB84FB84EC847D924C95E192969297
:1001F000AF92F29225934C951394DE934C957A939B
:100200004C9514934C954C952B9444945D944C953B
:10021000C8929393C5934C95F19303934C95AC93EB
:100220004C957694879498944C95479358936993FA
:100230003693B194E1940294FA94779587959095CA
:100240009E95C696E495C69676967E9687969096E7
:100250008D959896C696A496AD96BB96A39EB29E93
:10026000B69EBD9EC19E4BA9C59E4BA94BA94BA94D
:10027000C99ECD9ED19EA7D3ACD3A7D3A7D3B1D3CC
:10028000B1D3ACD3ACD3BFD3A2D3A2D3CCD3D0D32E
:10029000D4D3DAD3DED3E2D3E8D3ECD3FBD3F2D397
:1002A000F6D32FD433D437D43DD441D445D44BD412
:1002B0004FD45ED455D459D4A1D4A6D4ABD4B0D4A1
:1002C000B5D4BAD4BFD4C4D4D2D4C9D4CED401D531
:1002D00006D50BD510D515D51AD51FD524D533D5B0
:1002E00029D52ED547DE47DE57DE77DE6EDE7FDE90
:1002F00087DE9ADEB5DEF2DEC7E4CCE4D5E4E2E4E4
:10030000FAE41DE531E5DFE5D9E5ECE5F6E50AE6D9
:1003100021E62BE635ED2CED3EED46ED58ED7DED7D
:10032000B4EDC8EDFAEDF4ED09EE0FEE15EE2DEE9D
:100330003BEE9CF195F1A5F1B0F1C0F1D5F1F5F1ED
:100340001AF225F2FFF2FBF207F310F31AF328F387
:1003500036F34EF352F3F0037604900466039004F0
:1003600090041204F40290049004860356042A03B5
:1003700090049004900490049004900490049004DD
:100380009004900490045404900490049004900409
:10039000900490049004840318039004DC040C037C
:1003A00090048003D20490049004900490049E046E
:1003B0004C032E0424036A03AE03220410035E04DC
:1003C000FC035003E803AA036403EA02D0044204D6
:1003D000AC03EC02960442039803C6023A03D4022B
:1003E0001E03EE035E035203C403F8024A04FC0436
:1003F000C603D804E604C802FA04BE03BE03B4046C
:10040000BE03BC03BC03BC03BC03BC03BE03BC03F0
:10041000BC03BC03BC03B404B404B404B404B40407
:10042000B40402030203980402030203980498042C
:10043000CA03EC04A803CA03EC04A803CA03EC042F
:10044000A8035A030A030A035A035A030A030A03B6
:100450005A035A035A035A03036EDB363D9A99999D
:10046000993DABAAAA2A3E000000803F084AD73B2C
:100470003BCE016E84BCBFFDC12F3D6C74319ABD73
:1004800056833DDA3D00C77F11BED9E4BB4C3E9197
:100490006BAAAABE000000803F072C7AA5BA6CC5E3
:1004A00090DA3B9365FC8BBC53F810FD3C5692836D
:1004B0004DBD879D3AB63DCBC9BF5BBE73DA0FC950
:1004C0003F05A84CCDB2D44EB93836A9020C50B96C
:1004D000918688083CA6AAAA2ABE000000803F0890
:1004E000000000BE922449123EABAAAA2ABECDCC7F
:1004F000CC4C3E00000080BEABAAAAAA3E00000081
:1005000000BF000000803F0000000000084178D3D9
:10051000BB4387D1133D190E3CC3BD4282AD2B3E78
:1005200068EC8276BED98FE1A93E4C80EFFFBE0118
:10053000C4FF7F3F00000000000664EC1B3C04BCCD
:10054000163E3BE5B93CC93C37C29E5A3D6604980D
:10055000083EEA69AAAA3E000000803F0D94D664D6
:100560000D9480220D94683A0D94835A0D94EA5BA1
:100570000D942C2E0D947E8E0D945E610D94CE45BF
:100580000D94AF8C0D94543E0D94447C0D948627AD
:100590000D94AC280D9448460D949D570D94E3841A
:1005A0000D9413240D942B630D94CC270D94A13C32
:1005B0000D94B36C0D94AC640D9491440D948B44E4
:1005C0000D9431370D9488880D9450870D945216F0
:1005D0000D9431970D94A8260D9417270D94C25BA6
:1005E0000D9449950D943E460D941D010D94E4081B
:1005F0000D941A280D942B0E0D944D7A0D941D0810
:100600000D94F4140D9409940D94F32A0D94406BF9
:100610000D9451080D9411950D942E010D94623A8C
:100620000D9414260D941D620D942E3F0D94825D41
:100630000D9444010D9492340D94BA460D94D12733
:100640000D94B0950D94A2290D94B5250D94FA9CA6
:100650000D948D0F0D94F2010D9460040D94F562CC
:100660000D94052F0D946E030D94CB1D0D942A0847
:100670000D948C340D949C270D942A0C0D941A5BC8
:100680000D94A4020D9447270D94001D0D94581548
:100690000D94E2660D9472480D949D250D9480731F
:1006A0000D945B260D94FE270D94E2630D94336741
:1006B0000D943E0E0D9430950D9424220D94E9274F
:1006C0000D94E12C0D94C68D0D9485260D949D01FD
:1006D0000D94C12D0D94DE250D9484510D9411447B
:1006E0000D94D0640D94DE090D94AB110D946B1430
:1006F0000D94111A0D94D14A0D940E420D944F95FC
:100700000D94E7000D94224A0D94C0000D94CA0187
:100710000D94ED240D94961E0D94C7640D94380E1F
:100720000D943C580D9493470D9438460D94617B7D
:100730000D9458270D94D4330D941C070D94140375
:100740000D9429830D945C1A0D94CD070D94BA6411
:100750000D94FF940D947B260D94F8260D94EC25B2
:100760000D946B300D94463A0D9410290D94665CEF
:100770000D94667F0D946D440D94595B0D94505B00
:100780000D94EC750D94585D0D940B280D946B2809
:100790000D94F6460D94DD940D94CF640D948F3C2A
:1007A0000D94A46D0D94914D0D949A3C0D94F25BB3
:1007B0000D94E0180D94F4070D943B450D947B4483
:1007C0000D9432050D9454430D94571B0D94E13450
:1007D0000D9468260D941E620D94CE330D94D62789
:1007E0000D94CC000D94F6820D94A3420D9498665E
:1007F0000D9416620D94495E0D943C260D94EC09FF
:100800000D94308B0D943B460D94D74A0D942D2EAC
:100810000D94D6090D9461620D9479080D942A57B0
:100820000D94332E0D94F4000D94BC2A0D947F0882
:100830000D94873C0D9499050D94E7340D9417445D
:100840000D94543A0D940B260D94B41B0D948146CF
:100850000D944A740D94A65C0D94DB2C0D94B02578
:100860000D9441450D94605C0D94A9080D948D6F15
:100870000D9495680D9492660D94930F0D94312EFE
:100880000D94AC5C0D94EB260D94FF900D947907BC
:100890000D942A440D9430280D942D3D0D948E21F5
:1008A0000D94150A0D944F5E0D940D020D942B02BC
:1008B0000D94283F0D94C6110D942F5E0D9437268C
:1008C0000D941C620D94AB580D940D210D945B0A90
:1008D0000D94C22C0D945A430D942E2E0D94E609BE
:1008E0000D945A3E0D9422510D9445660D945F016E
:1008F0000D94C72D0D9443440D9498560D94A73C28
:100900000D94AA640D94CC110D94D7080D949E02F9
:100910000D94C6080D944B0D0D94BF5D0D940C08FD
:100920000D944A020D94CD640D942A2F0D9428271E
:100930000D9412940D94C8450D94A0400D94D701C8
:100940000D94AF080D940B6D0D94EE070D94246279
:100950000D94B6950D94302F0D942D670D94295A52
:100960000D945E910D94F0870D94565B0D94F046B6
:100970000D9481770D94325C0D94C5030D94AD6F89
:100980000D94C7070D9416800D94C9430D94BA0EAB
:100990000D943B900D940B780D94404E0D941A03DA
:1009A0000D94BE260D940C010D947C5B0D94CB032D
:1009B0000D9485280D94F3850D9484010D94E773AF
:1009C0000D9457080D944F2D0D942A6C0D94932877
:1009D0000D94492D0D94BC1C0D94E2940D94084285
:1009E0000D94392E0D949E5C0D942B370D9465302B
:1009F0000D94CD860D94C6280D944E280D94CC648C
:100A00000D94A10A0D94944B0D943F66496E697440
:100A100069616C6973696E67206779726F73000A28
:100A20004F703A5B6F6E2C6F66665D0A006F66668C
:100A3000006F6E007468723A2564206375723A25FF
:100A4000342E3266206D6F7420783A25342E31664C
:100A500020793A25342E3166207A3A25342E3166B3
:100A60002020636F6D7020783A25342E326620790D
:100A70003A25342E3266207A3A25342E32660A0020
:100A80004661696C65642120436F6D70656E7361AA
:100A900074696F6E2064697361626C65642E2020D6
:100AA00044696420796F7520666F7267657420747D
:100AB0006F20726169736520746865207468726F55
:100AC00074746C65206869676820656E6F75676807
:100AD0003F000A496E746572666572656E636520D3
:100AE00061742066756C6C207468726F74746C65C8
:100AF0002069732025642525206F66206D6167209D
:100B00006669656C640A0A00636865636B20636FDD
:100B10006D706173730A007468726F74746C652011
:100B20006E6F74207A65726F0A005448524F5454A5
:100B30004C450A0043555252454E540A00546869C8
:100B400073207265636F7264732074686520696DC9
:100B500070616374206F6E2074686520636F6D70C0
:100B6000617373206F662072756E6E696E67207494
:100B70006865206D6F746F72732E20204D6F746FD7
:100B800072732077696C6C207370696E210A486FEC
:100B90006C64207468726F74746C65206C6F772C51
:100BA000207468656E20726169736520746F206DB2
:100BB000696420666F722035207365632C20746829
:100BC000656E20717569636B6C79206261636B205F
:100BD000746F206C6F772E0A507265737320616E8C
:100BE00079206B657920746F20657869742E0A0A04
:100BF0006D6561737572696E6720636F6D70617387
:100C0000732076732000636F6D7061737320646965
:100C10007361626C65640A00726164696F206E6F53
:100C2000742063616C696272617465640A00646F48
:100C30006E650A000A45726173696E67204545500A
:100C4000524F4D0A000A4F703A5B782C2B2C765D80
:100C50000A0076002B00700078000A4D6F64652052
:100C600073776974636820746F20656469742C20DD
:100C700061696C65726F6E3A2073656C6563742090
:100C80006D6F6465732C207275646465723A2053CD
:100C9000696D706C65206F6E2F6F66660A000A536F
:100CA000617665640A000A4D6F766520616C6C2080
:100CB000636F6E74726F6C7320746F2065787472DA
:100CC000656D65732E20456E74657220746F207398
:100CD0006176653A20000A0A526164696F205365A3
:100CE0007475703A002025642C204C6F773A2531BA
:100CF0002E34662C20486967683A25312E34660AFE
:100D0000000A54554E453A0A000A434820362052FC
:100D1000616E6765732061726520646976696465D8
:100D20006420627920313030303A205B6C6F772C50
:100D300020686967685D0A000A5265626F6F7420F7
:100D400041504D000A275927203D20666163746F8A
:100D500072792072657365742C20616E79206F74CE
:100D6000686572206B657920746F2061626F7274A0
:100D70003A0A0043616E6E6F74207365742070616F
:100D800072616D65746572206F662074797065207C
:100D900025642E0A0056616C7565206F7574206F8E
:100DA000662072616E676520666F72207479706567
:100DB00020494E5431360A0056616C7565206F75B6
:100DC00074206F662072616E676520666F72207492
:100DD00079706520494E54380A00506172616D2067
:100DE0006E6F7420666F756E643A2025730A004931
:100DF0006E76616C696420636F6D6D616E642E2028
:100E000055736167653A20736574203C6E616D654A
:100E10003E203C76616C75653E0A004D6F64652826
:100E20002575290053504F525400445249465400EE
:100E30004F465F4C4F49544552004C414E44005080
:100E40004F534954494F4E00434952434C45005279
:100E5000544C004C4F495445520047554944454471
:100E6000004155544F00414C545F484F4C440041A1
:100E700043524F0053544142494C495A45004F4652
:100E8000460A004F4E0A002C090953696D706C65C3
:100E90003A2000506F732025643A0900466C696758
:100EA0006874206D6F6465730A00766F6C747320CC
:100EB000616E642063757200766F6C7473000A4211
:100EC000617474204D6F6E3A0A0056206D6F646530
:100ED0000A002B206D6F64650A0058206D6F6465F1
:100EE0000A0051756164206672616D650A00467280
:100EF000616D650A004348383A202564207C20252E
:100F0000640A004348373A202564207C2025640A7F
:100F1000004348363A202564207C2025640A00439B
:100F200048353A202564207C2025640A0043483453
:100F30003A202564207C2025640A004348333A2067
:100F40002564207C2025640A004348323A20256429
:100F5000207C2025640A004348313A202564207C07
:100F60002025640A00526164696F0A005061726151
:100F70006D65746572206E6F7420666F756E643A6D
:100F800020272573270A00547970653A20256420AC
:100F900028303D584C2C20313D4C562C20323D58A9
:100FA0004C4C2C20333D48524C562900536F6E61F7
:100FB000720A000A4F703A5B6F6E2C206F66662CC7
:100FC00020302D335D0A006F6666006F6E000A20C8
:100FD000547970652027726164696F27206E6F777E
:100FE0002E0A0A000A215761726E696E672C207200
:100FF0006164696F206E6F7420636F6E66696775D8
:1010000072656421005365747570204D6F64650AC4
:101010000A0A00436F6D6D616E64733A0A20206C9A
:101020006F67730A202073657475700A20207465D9
:1010300073740A20207265626F6F740A0A00416C33
:10104000743A2025302E32666D2C205261773A207A
:1010500025662054656D70657261747572653A20FD
:10106000252E31660A006E6F74206865616C7468A5
:1010700079000A436F6D70205665633A2025342E3F
:1010800032662C2025342E32662C2025342E3266F2
:101090000A0043757272656E74005468726F7474DE
:1010A0006C65004F66660A004D6F746F7220436F67
:1010B0006D703A20004D6167206F66663A202534D6
:1010C0002E34662C2025342E34662C2025342E34E4
:1010D000660A004D6167204465633A2025342E344A
:1010E000660A00436F6D706173730A0061626C651C
:1010F000640A0064697300656E00736176696E67E7
:10110000206F66667365747300636F6D70617373CF
:10111000206E6F74206865616C7468790048656141
:1011200064696E673A20256C642C2058595A3A201D
:1011300025642C2025642C2025642C0958595A6FCD
:1011400066663A2025362E32662C2025362E3266EB
:101150002C2025362E32660A00436F6D7061737342
:1011600020696E697469616C69736174696F6E205E
:101170006661696C65642100436F6D706173733AD9
:1011800020002E002C20416C743A20256C646D2CBC
:101190002023736174733A2025640A002C204C6F5D
:1011A0006E20004C61743A2000612025372E346691
:1011B0002025372E34662025372E346620672025DB
:1011C000372E34662025372E34662025372E346698
:1011D00020742025372E3466200A002E2E2E646FB0
:1011E0006E650A00494E530A0054657374696E6750
:1011F0002064617461666C617368206C6F676769F5
:101200006E6700436F6E6E6563742062617474650F
:10121000727920666F7220746869732074657374C4
:101220002E0A4D6F746F72732077696C6C20737027
:10123000696E206279206672616D6520706F7369D6
:1012400074696F6E206F726465722E0A46726F6EDB
:1012500074202826207269676874206F6620636591
:101260006E7465726C696E6529206D6F746F722083
:1012700066697273742C207468656E20696E2063D1
:101280006C6F636B77697365206F72646572206140
:10129000726F756E64206672616D652E0A52656D9F
:1012A000656D62657220746F20646973636F6E6E22
:1012B0006563742062617474657279206166746517
:1012C00072207468697320746573742E0A416E7994
:1012D000206B657920746F20657869742E0A004947
:1012E0004E3A20313A20256409323A2025640933E8
:1012F0003A20256409343A20256409353A202564CA
:1013000009363A20256409373A20256409383A20FD
:1013100025640A00494E2020313A20256409323ADA
:1013200020256409333A20256409343A20256409CC
:10133000353A20256409363A20256409373A2025B4
:10134000640A0048697420456E74657220746F20C9
:10135000657869742E0A0A0052656C6179206F669F
:10136000660A0052656C6179206F6E0A00437261F3
:1013700073683A2044697361726D696E67004175E4
:10138000746F54756E653A204661696C65640041FE
:1013900075746F54756E653A205375636365737326
:1013A000004175746F54756E653A205374617274A0
:1013B000656400666C6967687420706C616E207289
:1013C0006563656976656400666C6967687420703A
:1013D0006C616E207570646174652072656A656306
:1013E00074656400556E6B6E6F776E20706172610C
:1013F0006D6574657220252E31367300556E6B6EE7
:101400006F776E20706172616D6574657220696EB0
:101410006465782025640041726475436F7074655B
:10142000722056332E312E35204D504E472D696E89
:101430006469676F6D616E2D3200636F6D6D616EF3
:10144000642072656365697665643A2000434F4D98
:101450005041535320494E4954204552524F520057
:101460004553432043616C6962726174696F6E20F9
:101470006163746976653A2070617373696E672081
:101480007468726F74746C65207468726F756768C5
:1014900020746F20455343732E0A00456E746572A5
:1014A000696E67204553432043616C6962726174C1
:1014B000696F6E3A20706C65617365207265737434
:1014C0006172742041504D2E0A006C6F61645F613F
:1014D0006C6C20746F6F6B20256C7575730A0064DB
:1014E0006F6E652E004669726D7761726520636864
:1014F000616E67653A2065726173696E6720454564
:1015000050524F4D2E2E2E0A004657205665723AE5
:101510002025640A00496E697469616C6973696E9B
:10152000672041504D2E2E2E000A526561647920AD
:10153000746F20464C5920000A5072657373204521
:101540004E54455220332074696D657320746F20AA
:10155000737461727420696E746572616374697604
:10156000652073657475700A0032333466733334E2
:10157000353637000A0A496E697420417264754332
:101580006F707465722056332E312E35204D504EBB
:10159000472D696E6469676F6D616E2D320A0A4668
:1015A0007265652052414D3A2025750A426F61727D
:1015B0006420547970653A2025640A004C6F737476
:1015C0002047505321004C6F77204261747465723C
:1015D0007921006261726F6D657465722063616C60
:1015E0006962726174696F6E20636F6D706C65748F
:1015F000650043616C6962726174696E6720626143
:10160000726F6D6574657200415F6F66663A202582
:10161000342E32662C2025342E32662C2025342E92
:1016200032660A415F7363616C653A2025342E325D
:10163000662C2025342E32662C2025342E32660A64
:1016400000475F6F66663A2025342E32662C2025CF
:10165000342E32662C2025342E32660A002D0049A5
:101660004E530A0047524F554E4420535441525452
:101670000041726D3A205361666574792053776931
:101680007463680041726D3A205468722062656C20
:101690006F77204653005265616368656420436F2D
:1016A0006D6D616E64202325690050726541726D15
:1016B0003A204261642047505320506F73005072AB
:1016C0006541726D3A204143524F5F42414C5F5237
:1016D0004F4C4C2F50495443480050726541726D35
:1016E0003A20436865636B20414E474C455F4D414E
:1016F000580050726541726D3A20436865636B20F3
:1017000046535F5448525F56414C554500507265F0
:1017100041726D3A2043683726436838204F707411
:101720002063616E6E6F742062652073616D650069
:1017300050726541726D3A20436865636B20426F59
:1017400061726420566F6C74616765005072654108
:10175000726D3A20494E53206E6F74206865616C3B
:101760007468790050726541726D3A20494E532079
:101770006E6F742063616C6962726174656400509D
:10178000726541726D3A20436865636B206D6167D5
:10179000206669656C640050726541726D3A204341
:1017A0006F6D70617373206F6666736574732074F8
:1017B0006F6F20686967680050726541726D3A20EA
:1017C000436F6D70617373206E6F742063616C6919
:1017D0006272617465640050726541726D3A2043B3
:1017E0006F6D70617373206E6F74206865616C74C7
:1017F00068790050726541726D3A204261726F20C3
:101800006E6F74206865616C746879005072654110
:10181000726D3A205243206E6F742063616C69626E
:10182000726174656400504552463A2025752F2533
:101830007520256C750A0074657374006261726F9F
:1018400000000000000000000000C469636F6D70BC
:1018500061737300000000000000C74C67707300E4
:1018600000000000000000000000C637696E730031
:101870000000000000000000000070AF6C6F6767A0
:10188000696E670000000000000052286D6F746FE1
:1018900072730000000000000000AA886F70746678
:1018A0006C6F77000000000000006F2870776D00FB
:1018B000000000000000000000003C8872616469C4
:1018C0006F000000000000000000D48772656C61AA
:1018D00079000000000000000000FB2B736F6E61B8
:1018E0007200000000000000000071284172647561
:1018F000436F707465722056332E312E35204D5053
:101900004E472D696E6469676F6D616E2D32006C94
:101910006F677300000000000000000000452473A2
:10192000657475700000000000000000006E3774E0
:10193000657374000000000000000000006837724A
:1019400065626F6F740000000000000000022868EC
:10195000656C7000000000000000000000EB2773C1
:101960006574757000616363656C000000000000C1
:101970000000002334636F6D70617373000000001A
:10198000000000A143636F6D706173736D6F74002D
:101990000000004A8C657261736500000000000061
:1019A00000000081276672616D6500000000000084
:1019B0000000000A436D6F646573000000000000C2
:1019C0000000003B8A6F7074666C6F770000000047
:1019D0000000006927726164696F00000000000068
:1019E000000000108972616E676500000000000051
:1019F000000000344472657365740000000000004C
:101A0000000000013A73657400000000000000004F
:101A10000000008F4A73686F77000000000000002C
:101A2000000000AE41736F6E6172000000000000A4
:101A300000000051438D000100424154545F4D4F5E
:101A40004E49544F520000000000A80001004241DE
:101A500054545F564F4C545F50494E00000000A94B
:101A6000000100424154545F435552525F50494E69
:101A7000000000008E000400424154545F564F4C59
:101A8000545F4D554C540000008F000400424154F7
:101A9000545F414D505F504552564F4C5400910099
:101AA0000300424154545F4341504143495459005B
:101AB00000000041600200C201899002008403B767
:101AC0003B010090011E8C0A00D002CA960A003227
:101AD000008D9D0A000A007A290A008C00C34B0A77
:101AE00000E80318800A002003059221005A0071C3
:101AF000290200A40139240200FA006C29020064C2
:101B000000F39C6400A4018A6A0A001400D5AA02AA
:101B1000002602679A64009600639A0200D0023E93
:101B20009B0200B603E04B0A00370063290200C2A3
:101B30000144240A000401A83B0200DC00D460E850
:101B400003C800712C0A0032000253595349445F04
:101B500053575F4D5245560000000000D911000058
:101B600000000153595349445F53575F545950453E
:101B70000000000001DB11000020410253595349CD
:101B8000445F544849534D41560000000070DC1139
:101B90000000803F0253595349445F4D5947435316
:101BA00000000000000071DE1100007F430153457A
:101BB0005249414C335F42415544000000000072DD
:101BC000E011000098410154454C454D5F44454C9F
:101BD000415900000000000073E111000000000204
:101BE00052544C5F414C54000000000000000000C3
:101BF00000A0E2110080BB4401534F4E41525F45AB
:101C00004E41424C45000000000094E411000000E9
:101C10000001534F4E41525F54595045000000009F
:101C20000000009AE5110000000004534F4E41529D
:101C30005F4741494E000000000000001EE611CD44
:101C4000CC4C3F0146535F424154545F454E4142A4
:101C50004C45000000C1EA11000000000446535F3B
:101C6000424154545F564F4C54414745000097EB56
:101C700011000028410446535F424154545F4D41D6
:101C80004800000000000025EF11000000000146A0
:101C9000535F4750535F454E41424C4500000000A2
:101CA000C3F3110000803F0146535F4743535F4534
:101CB0004E41424C4500000000C6F41100000000F7
:101CC000024750535F48444F505F474F4F44000016
:101CD000000023F51100004843014D41475F454E88
:101CE00041424C450000000000000092F711000046
:101CF000803F01464C4F575F454E41424C450000E6
:101D00000000000096F811000000000153555045F6
:101D1000525F53494D504C4500000000009BF911A3
:101D2000000000000252544C5F414C545F46494E43
:101D3000414C00000000A3FA1100000000015253C2
:101D400053495F50494E0000000000000000001899
:101D5000FD11000080BF04525353495F52414E476A
:101D6000450000000000000027FE110000A0400117
:101D700057505F5941575F4245484156494F5200BD
:101D8000001A0212000000400157505F544F5441A6
:101D90004C000000000000000000D3091200000009
:101DA000000157505F494E444558000000000000B4
:101DB000000000D40A120000000002434952434CC4
:101DC000455F52414449555300000000D70B1200B3
:101DD00000204104434952434C455F524154450061
:101DE00000000000001D0D120000A0410352544CE1
:101DF0005F4C4F49545F54494D4500000000A2110B
:101E00001200409C45024C414E445F5350454544AE
:101E100000000000000000D91512000048420250E6
:101E2000494C4F545F56454C5A5F4D415800000095
:101E30001C171200007A43025448525F4D494E006D
:101E4000000000000000000000B41912000002436E
:101E5000025448525F4D415800000000000000004D
:101E60000000B51B1200007A440146535F544852EB
:101E70005F454E41424C4500000000B61D12000077
:101E800000000246535F5448525F56414C5545008E
:101E900000000000B81E1200C07344025452494DA5
:101EA0005F5448524F54544C4500000000B9201272
:101EB0000000E143025448525F4D494400000000D5
:101EC000000000000000C222120000FA4301464C4C
:101ED000544D4F444531000000000000000000C890
:101EE00024120000000001464C544D4F444532007E
:101EF0000000000000000000C925120000000001E1
:101F0000464C544D4F444533000000000000000093
:101F100000CA26120000000001464C544D4F4445B3
:101F200034000000000000000000CB271200000079
:101F30000001464C544D4F44453500000000000060
:101F4000000000CC28120000000001464C544D4F08
:101F5000444536000000000000000000CD291200BA
:101F60000000000153494D504C45000000000000A6
:101F70000000000000CE2A1200000000024C4F4773
:101F80005F4249544D41534B000000000000142BA8
:101F90001200804F44014553430000000000000040
:101FA00000000000000000BA2D12000000000154E3
:101FB000554E450000000000000000000000000039
:101FC000BB2E12000000000254554E455F4C4F5787
:101FD000000000000000000000BD31120000000001
:101FE0000254554E455F4849474800000000000034
:101FF0000000BC2F1200007A44014652414D4500BA
:1020000000000000000000000000009533120000F6
:10201000803F014348375F4F5054000000000000EC
:102020000000000098341200000000014348385FAF
:102030004F5054000000000000000000001F351247
:10204000000000000141524D494E475F434845435F
:102050004B00000000002036120000803F02414E7D
:10206000474C455F4D415800000000000000002231
:10207000031200A08C4503414E474C455F5241542A
:10208000455F4D415800000026051200A08C46080F
:102090005243315F0000000000000000000000001B
:1020A00000AA371245380000085243325F00000092
:1020B00000000000000000000000AB541245380092
:1020C00000085243335F00000000000000000000E1
:1020D000000000AC711245380000085243345F0024
:1020E000000000000000000000000000AD8E12455E
:1020F000380000085243355F000000000000000077
:102100000000000000AEAB12DB380000085243367E
:102110005F00000000000000000000000000AFC9E8
:1021200012DB380000085243375F00000000000057
:1021300000000000000000B0E712DB380000085289
:1021400043385F00000000000000000000000000B5
:10215000B10513DB38000008524331305F00000046
:10216000000000000000000000B22313DB38000074
:1021700008524331315F0000000000000000000001
:102180000000B34113DB3800000252435F53504557
:102190004544000000000000000000C05F13000084
:1021A000F543044143524F5F52505F50000000001E
:1021B00000000000DD611300009040044143524FD5
:1021C0005F5941575F5000000000000000F46513A4
:1021D00000009040044143524F5F42414C5F524FD8
:1021E0004C4C00000000F269130000803F044143A2
:1021F000524F5F42414C5F5049544348000000F346
:102200006D130000803F014143524F5F54524149DA
:102210004E455200000000001B71130000004001F9
:102220004C45445F4D4F4445000000000000000055
:10223000009EFC110000104108524154455F524C71
:102240004C5F0000000000000000DF7213C8370080
:102250000008524154455F5049545F00000000009F
:10226000000000E08C13C837000008524154455F5D
:102270005941575F0000000000000000E1A613C8AC
:10228000370000084C4F495445525F4C41545F00A1
:102290000000000000E7C013C8370000084C4F4999
:1022A0005445525F4C4F4E5F000000000000E8DADA
:1022B00013C8370000085448525F524154455F002C
:1022C00000000000000000ECF413C83700000854C0
:1022D00048525F414343454C5F000000000000004E
:1022E000F10E14C8370000084F465F524C4C5F0097
:1022F000000000000000000000ED2814C8370000B6
:10230000084F465F5049545F000000000000000085
:102310000000EE4214C8370000085354425F524C8C
:102320004C5F000000000000000000E278146437F9
:102330000000085354425F5049545F000000000001
:1023400000000000E3861464370000085354425F25
:102350005941575F000000000000000000E49414A1
:1023600064370000085448525F414C545F0000003D
:10237000000000000000EBA2146437000008484C85
:10238000445F4C41545F000000000000000000E585
:102390005C146437000008484C445F4C4F4E5F00AB
:1023A0000000000000000000E66A14643700000826
:1023B00043414D5F000000000000000000000000ED
:1023C00000A50108003A00000852454C41595F0041
:1023D000000000000000000000000D1D08CE3900C4
:1023E0000008434F4D504153535F00000000000070
:1023F00000000093970F0932000008494E535F0018
:1024000000000000000000000000000003FE10B308
:1024100034000008494E41565F00000000000000F3
:102420000000000000640C09583C00000857504EA2
:1024300041565F0000000000000000000000652B16
:1024400008A33C0000085352305F00000000000069
:10245000000000000000006E640C712500000853AD
:1024600052315F000000000000000000000000008A
:102470006FED0C7125000008414852535F000000C9
:102480000000000000000000009FCC0D513600004D
:10249000084D4E545F0000000000000000000000E6
:1024A0000000A69207963A000008424154545F008B
:1024B000000000000000000000000024990AC84647
:1024C000000008474E445F000000000000000000CC
:1024D000000000000B79109C2F0000085343484572
:1024E000445F00000000000000000000000CC41168
:1024F000194600000846454E43455F0000000000B5
:102500000000000000004566072245000008475013
:1025100053474C495443485F000000000000004608
:102520007A11EF2A0000084D4F545F0000000000B0
:1025300000000000000000005A800B513900000824
:1025400052434D41505F00000000000000000000B9
:1025500000C74F0C4B4600000000000000000000C8
:10256000000000000000000000000000000000006B
:102570000002005241575F53454E530000000000D7
:102580000000000069000000000002014558545F8F
:10259000535441540000000000000000006B000094
:1025A000000000020252435F4348414E0000000019
:1025B0000000000000006D00000000000203524116
:1025C000575F4354524C0000000000000000006FB1
:1025D00000000000000204504F534954494F4E0080
:1025E0000000000000000000710000000000020573
:1025F0004558545241310000000000000000000026
:102600000073000000000002064558545241320099
:102610000000000000000000000075000000000045
:1026200002074558545241330000000000000000EA
:102630000000007700000000000208504152414DA8
:1026400053000000000000000000000079000000BE
:10265000000000FF0000000000000000000000007B
:102660000000000000000000000000202025530AA8
:1026700000436F6D6D616E64733A00496E76616CF4
:10268000696420636F6D6D616E642C207479706570
:10269000202768656C702700657869740068656C30
:1026A000700025535D200042616420636F6E766583
:1026B0007273696F6E207479706520272553270A1D
:1026C00000556E6B6E6F776E20636F6E76657273FA
:1026D000696F6E20272553270A0025733A20256647
:1026E0000A0025733A20256C640A0025733A2025D8
:1026F000640A0025733A2025640A00454550524F6C
:102700004D2066756C6C002C76D888674F0823C105
:10271000DFAE59B1B796E5E453C63A51997696E6DD
:10272000C28426898C9B62407C6FFCBC9C9F40BA13
:10273000A56FA590055A2A5C936B6C676DC11BE071
:10274000E40D47F520E6B5D0ED902E0094357700E6
:1027500080841E0000204E000000C83333333398BD
:102760006E128341EF8D21893BE655CFFEE6DBD12A
:10277000844B38F77C1D90A4BBE4243284725E81C4
:1027800000C9F1ECA1E53DDCDFE1E3E6E8EBEDEFCC
:10279000F2F4F7F9FCFE000305080A0C0F111416F9
:1027A000181B1D202224276E616E00696E6600458D
:1027B00072726F723A2041505F48414C5F4D504EEB
:1027C000473A3A415652416E616C6F67496E206FCD
:1027D0007574206F66206368616E6E656C730D0A98
:1027E00000474F494E4720444F574E20464F5220F6
:1027F00041205245424F4F540D0A0050414E49432B
:102800003A207363686564756C65723A3A737973DC
:1028100074656D5F696E697469616C697A6564205D
:1028200063616C6C65646D6F7265207468616E20A5
:102830006F6E63650050414E49433A2041565253F2
:10284000656D6170686F72653A3A74616B65207589
:102850007365642066726F6D20696E7369646520AC
:1028600074696D65722070726F6365737300504197
:102870004E49433A2053504930207772697465209D
:10288000636F6C6C6973696F6E0050414E49433AD7
:102890002053504930207472616E736665722063F4
:1028A0006F6C6C6973696F6E00010210202008085C
:1028B00010204010204080020102010804020101A2
:1028C000020408102040808040201008040201808B
:1028D00004020180402010080402010804020101E2
:1028E00002040810204080010204081020408040AB
:1028F00005050505070508080808020202020A0A7C
:102900000808040404040101010101010101030399
:10291000030303030303040707070C0C0C0C0C0C44
:102920000C0C0202020206060606060606060B0B41
:102930000B0B0B0B0B0B05000020002300260029BE
:10294000002C002F003200000100000301060109E5
:102950000100002200250028002B002E0031003449
:102960000002010000050108010B01000021002404
:102970000027002A002D0030003300010100000470
:102980000107010A01327C8900EDD9687700000057
:10299000590000000000000000D69FDCA81817AA0C
:1029A00090437327F6B968EDF4DED409FEE61C1CEB
:1029B00084DDE80B992927D6DF8D210F036418EFFA
:1029C000EE1EF0B7828200941500F37C0000001424
:1029D00000988F00007F6A00000000000000E7B749
:1029E0003F3600000000000000AF669ED0385DD387
:1029F0006C20B9EB5D7C7C770400000000000000D7
:102A000000000000000000000000000000000000C6
:102A100000000000000000002AF10F86DBD0BC544B
:102A200016131586004E44BD7F9A15159001EA498C
:102A3000B51653A78AEA000000000000000000005D
:102A40000000000000000000000000000000000086
:102A50000000000000000000000000000000000076
:102A60000000000000000000000000000000000066
:102A70000000000000000000000000000000CC3159
:102A8000AA2C532E00204E4D454120002053495280
:102A9000462000204D544B2000204D544B3139200E
:102AA000002075626C6F7820004F4B00009600008C
:102AB00000E100008025000000C2010024505352B4
:102AC000463130302C302C33383430302C382C31E7
:102AD0002C302A334300245047434D442C31362CAC
:102AE000302C302C302C302C302A36410D0A00018D
:102AF00000454E41424C450000000000000000002F
:102B0000000003000000803F040152414449555336
:102B10000000000000000000000000040000004869
:102B2000430402414343454C000000000000000004
:102B300000000000080000007A4400FF00000000D0
:102B40000000000000000000000000000000000085
:102B50000000004750565447004750474741004740
:102B600050524D430024505542582C34302C676746
:102B7000612C302C312C302C302C302C302A374228
:102B80000D0A24505542582C34302C7674672C3062
:102B90002C312C302C302C302C302A37460D0A2486
:102BA000505542582C34302C726D632C302C302C04
:102BB000302C302C302C302A36370D0A0024504D62
:102BC000544B3331342C302C302C312C312C302CD4
:102BD000302C302C302C302C302C302C302C302C15
:102BE000302C302C302C302A32380D0A24504D54E1
:102BF0004B3333302C302A32450D0A24504D544B80
:102C00003331332C312A32450D0A24504D544B3385
:102C100030312C322A32450D0A00245053524631AD
:102C200030332C302C302C312C312A32350D0A2403
:102C3000505352463130332C312C302C302C312A29
:102C400032350D0A24505352463130332C322C3059
:102C50002C302C312A32360D0A2450535246313052
:102C6000332C332C302C302C312A32370D0A24509F
:102C70005352463130332C342C302C312C312A3203
:102C8000300D0A24505352463130332C352C302C21
:102C9000312C312A32300D0A245053524631303310
:102CA0002C362C302C302C312A32320D0A24505341
:102CB00052463130332C382C302C302C312A3243D0
:102CC0000D0A24505352463135312C312A33460DEA
:102CD0000A24505352463130362C32312A30460DB8
:102CE0000A00A0A20008A60200000000000000A840
:102CF000B0B3A0A20008A60029010000000000D087
:102D0000B0B3B56206010300010601124F2450550D
:102D100042582C34312C312C303030332C30303080
:102D2000312C33383430302C302A32360D0A0050F2
:102D3000414E49433A2044617461466C6173682096
:102D400053504944657669636544726976657220BB
:102D500073656D6170686F7265206973206E756C44
:102D60006C0050414E49433A2044617461466C61A5
:102D70007368205350494465766963654472697687
:102D80006572206E6F7420666F756E64004C6F679D
:102D90002025752C202020207374617274202575E5
:102DA0002C202020656E642025750A000A257520D8
:102DB0006C6F67730A000A4E6F206C6F67730A0AA4
:102DC000004E756D50616765733A2025752020505F
:102DD00061676553697A653A2025750A004D616E11
:102DE0007566616374757265723A20307825303289
:102DF000782020204465766963653A203078253054
:102E000034780A004E6F2064617461666C61736887
:102E100020696E7365727465640025750A002575F6
:102E20002C0900444620706167652C206C6F672078
:102E300066696C6520232C206C6F67207061676564
:102E40003A2025752C0900464D542C2025752C2040
:102E500025752C2025532C2025532C2025530A0082
:102E60002C2000257300257300257300252E326663
:102E700000252E326600252E326600252E32660091
:102E8000256600256C7500256C6400257500256499
:102E90000025750025640025532C2000554E4B4E0F
:102EA0002C2025750A0050414E49433A2041505F7D
:102EB0004261726F3A3A7265616420756E73756330
:102EC0006365737366756C20666F72206D6F7265D3
:102ED000207468616E203530306D7320696E20413A
:102EE000505F4261726F3A3A63616C6962726174F9
:102EF00065205B335D0D0A0050414E49433A204145
:102F0000505F4261726F3A3A7265616420756E7308
:102F100075636365737366756C20666F72206D6F81
:102F20007265207468616E203530306D7320696E73
:102F30002041505F4261726F3A3A63616C6962721C
:102F4000617465205B325D0D0A0050414E49433A81
:102F50002041505F4261726F3A3A72656164207538
:102F60006E7375636365737366756C20666F72202C
:102F70006D6F7265207468616E203530306D73201E
:102F8000696E2041505F4261726F3A3A63616C69C9
:102F90006272617465205B315D0D0A00040241427A
:102FA000535F505245535300000000000000000CD6
:102FB0000000000000040354454D500000000000D4
:102FC00000000000000000000800000000000104F4
:102FD000414C545F4F4646534554000000000000EA
:102FE0000010000000000000FF00000000000000D2
:102FF00000000000000000000000000000000000D1
:1030000050414E49433A2041505F4261726F5F4DDB
:10301000533536313120746F6F6B206D6F726520C0
:103020007468616E20313030306D7320746F2069A8
:103030006E697469616C697A650050414E49433A22
:103040002041505F4261726F5F4D53353631313AE6
:10305000206661696C656420746F2074616B652003
:1030600073657269616C2073656D6170686F7265FC
:1030700020666F7220696E69740050414E49433A70
:103080002041505F4261726F5F4D53353631313AA6
:10309000204E554C4C2073657269616C20647269D6
:1030A0007665720050414E49433A206661696C650D
:1030B0006420746F2074616B65205F6932635F7395
:1030C000656D203130302074696D657320696E2024
:1030D0006120726F772C20696E2041505F426172CF
:1030E0006F5F4D53353631313A3A5F7570646174B4
:1030F000650050414E49433A2041505F4261726F32
:103100005F4D533536313120646964206E6F742011
:103110006765742076616C69642049324320736569
:103120006D617068726F65210050414E49433A20CD
:103130006661696C656420746F2074616B65205FE3
:103140007370695F73656D203130302074696D650F
:103150007320696E206120726F772C20696E204188
:10316000505F4261726F5F4D53353631313A3A5F8D
:103170007570646174650050414E49433A20415076
:103180005F4261726F5F4D5335363131206469643F
:10319000206E6F74206765742076616C69642053BB
:1031A00050492073656D617068726F6521005041F0
:1031B0004E49433A2041505F4261726F5F4D533533
:1031C00036313120646964206E6F74206765742025
:1031D00076616C6964205350492064657669636543
:1031E0002064726976657221004661696C656420AD
:1031F000746F2067657420484D433538343320732D
:10320000656D6170686F72650005014F465300007F
:10321000000000000000000000000000110000009D
:1032200000000402444543000000000000000000CC
:1032300000000000001D000000000001034C45419B
:10324000524E0000000000000000000000000F00CF
:103250000000803F010455534500000000000000BD
:103260000000000000000021000000803F01054137
:1032700055544F444543000000000000000000008A
:1032800022000000803F01064D4F544354000000CF
:103290000000000000000000009E0000000000058B
:1032A000074D4F5400000000000000000000000027
:1032B00000009F000000000001084F5249454E5495
:1032C00000000000000000000000001000000000EE
:1032D00000010945585445524E414C000000000081
:1032E0000000000023000000000000FF00000000BC
:1032F00000000000000000000000000000000000CE
:10330000000000256C642E2530376C64002D000908
:10331000736C6F70653A0009793A00783A0043752A
:103320007276653A0009736C6F70653A0009793AF4
:1033300000783A0043757276653A0009736C6F70D5
:10334000653A0009793A00783A0043757276653A31
:103350000009736C6F70653A0009793A00783A0099
:1033600043757276653A0009736C6F70653A0009AF
:10337000793A00783A0043757276653A0009736CC1
:103380006F70653A0009793A00783A0043757276B1
:10339000653A0043616C6962726174696F6E2046C0
:1033A00041494C45440A0043616C69627261746929
:1033B0006F6E207375636365737366756C0A005373
:1033C00063616C696E673A20252E326620252E32A5
:1033D0006620252E32660A004F6666736574733A5E
:1033E00020252E326620252E326620252E32660AB2
:1033F000004661696C656420746F206765742049BC
:103400004E532073616D706C650A00506C6163658A
:103410002041504D20255320616E642070726573E9
:103420007320616E79206B65792E0A006F6E2069BA
:103430007473204241434B006E6F736520555000FA
:103440006E6F736520444F574E006F6E2069747322
:103450002052494748542073696465006F6E2069A3
:103460007473204C4546542073696465006C65761E
:10347000656C0020002A00496E6974204163636511
:103480006C000A6779726F20646964206E6F742023
:10349000636F6E76657267653A20646966663D257E
:1034A00066206470730A002A00496E6974204779A7
:1034B000726F00020050524F445543545F4944001C
:1034C000000000000000260000000000050141434C
:1034D000435343414C00000000000000000000285E
:1034E000000000000005024143434F4646530000E0
:1034F0000000000000000000340000000000050390
:103500004759524F4646530000000000000000009B
:103510000040000000000001044D5055364B5F464E
:10352000494C54455200000000004C0000000000CF
:1035300000FF00000000000000000000000000008C
:103540000000000000000000004661696C65642016
:10355000746F20626F6F74204D50553630303020BC
:10356000352074696D6573004D5055363030303AF2
:1035700020556E61626C6520746F206765742073DE
:10358000656D6170686F72650050414E49433A2025
:1035900041505F496E65727469616C53656E736FFB
:1035A000725F4D5055363030303A3A5F706F6C6C08
:1035B0005F64617461206661696C656420746F206A
:1035C00074616B65204932432073656D6170686F6B
:1035D00072652073796E6368726F6E6F75736C7944
:1035E0000050414E49433A206661696C656420741D
:1035F0006F20626F6F74204D50553630303020355B
:103600002074696D6573004D50553630303020732D
:10361000746172747570206661696C65643A206EBD
:103620006F20646174612072656164790054696D12
:103630006564206F75742077616974696E672066B0
:103640006F72207573657220726573706F6E73652B
:103650000004024750535F4741494E0000000000FC
:103660000000000024000000803F01034750535F2A
:10367000555345000000000000000000002C000031
:1036800000803F04045941575F50000000000000D3
:103690000000000000001C00CDCC4C3E0405525040
:1036A0005F5000000000000000000000000000204B
:1036B00000CDCC4C3E010657494E445F4D41580069
:1036C00000000000000000002D00000000000508C0
:1036D0005452494D000000000000000000000000AE
:1036E000003E000000000001094F5249454E544180
:1036F00054494F4E0000000000002E000000000062
:10370000040A434F4D505F42455441000000000001
:103710000000002800CDCCCC3D010B4750535F4D3D
:10372000494E534154530000000000002F00000098
:10373000C040010C4750535F44454C4159000000C4
:10374000000000000030000000004000FF0000000A
:103750000000000000000000000000000000000069
:103760000000000004005000000000000000000005
:1037700000000000000000000000000000040149FB
:103780000000000000000000000000000000000039
:103790000400000000000202494D415800000000F2
:1037A0000000000000000000000800000000000011
:1037B000FF0000000000000000000000000000000A
:1037C00000000000000000000400500000000000A5
:1037D00000000000000000000000000000000000E9
:1037E000000401490000000000000000000000008B
:1037F000000000000400000000000402440000007B
:1038000000000000000000000000000000080000B0
:103810000000000203494D41580000000000000074
:103820000000000000000C000000000000FF00008D
:103830000000000000000000000000000000000088
:10384000000000000002004D494E00000000000092
:1038500000000000000000000A000080894402010E
:103860005452494D0000000000000000000000001C
:10387000000C000080BB4402024D415800000000D3
:10388000000000000000000000000E000080ED4479
:103890000103524556000000000000000000000037
:1038A00000000010000000803F0205445A000000A4
:1038B00000000000000000000000000011000000F7
:1038C000000000FF000000000000000000000000F9
:1038D00000000000000000000000000800000000E0
:1038E00000000000000000000000000000000000D8
:1038F00045380000010146554E4354494F4E0000E3
:10390000000000000000001D000000000000FF009B
:1039100000000000000000000000000000000000A7
:1039200000000000000041505F4D6F746F72733AE9
:10393000206661696C656420746F206372656174D0
:1039400065207468726F74746C6520637572766537
:10395000000101544352565F454E41424C45000020
:103960000000000040000000803F01025443525616
:103970005F4D4944504354000000000000410000E6
:103980000050420103544352565F4D415850435436
:1039900000000000000042000000BA42020553503F
:1039A000494E5F41524D4544000000000000004375
:1039B0000000008C4200FF0000000000000000003A
:1039C00000000000000000000000000000000100F6
:1039D00050494E0000000000000000000000000000
:1039E0000000000000384200FF000000000000005E
:1039F00000000000000000000000000000000000C7
:103A0000010054524947475F545950450000000097
:103A10000000000000000000000101445552415424
:103A2000494F4E00000000000000000001000000AF
:103A300020410202534552564F5F4F4E0000000096
:103A4000000000000002000080A24402035345521F
:103A5000564F5F4F46460000000000000000040083
:103A600000808944040454524947475F44495354F1
:103A70000000000000000009000000000000FF003E
:103A80000000000000000000000000000000000036
:103A900000000000000001004D4F44450000000000
:103AA00000000000000000000036000000000005DB
:103AB00001524554524143540000000000000000F0
:103AC000000047000000000005024E4555545241D9
:103AD0004C00000000000000000000530000000047
:103AE000000503434F4E54524F4C000000000000AD
:103AF000000000005F000000000001045354414238
:103B00005F524F4C4C0000000000000000330000EA
:103B10000000000105535441425F54494C540000D9
:103B200000000000000034000000000001065354B3
:103B300041425F50414E000000000000000000358F
:103B40000000000000010752435F494E5F524F4C96
:103B50004C000000000000003700000000000208D8
:103B6000414E474D494E5F524F4C0000000000004F
:103B7000003A0000A08CC50209414E474D41585FF4
:103B8000524F4C000000000000003C0000A08C459B
:103B9000010A52435F494E5F54494C5400000000F3
:103BA000000000380000000000020B414E474D4964
:103BB0004E5F54494C000000000000003E0000A091
:103BC0008CC5020C414E474D41585F54494C000092
:103BD0000000000000400000A08C45010D52435F32
:103BE000494E5F50414E00000000000000003900C7
:103BF00000000000020E414E474D494E5F50414EBD
:103C000000000000000000420000A08CC5020F412F
:103C10004E474D41585F50414E00000000000000EB
:103C2000440000A08C4501104A535449434B5F5354
:103C300050440000000000000046000000000000AA
:103C4000FF00000000000000000000000000000075
:103C50000000000000000000040154435F585900B8
:103C60000000000000000000000000140000002020
:103C700040040254435F5A000000000000000000AE
:103C80000000000065000000A04000FF00000000F0
:103C90000000000000000000000000000000000024
:103CA000000000040053504545440000000000009F
:103CB00000000000000011000000FA43040152411E
:103CC0004449555300000000000000000000001DA2
:103CD0000000004843040253504545445F555000DE
:103CE0000000000000000000150000007A430403FB
:103CF00053504545445F444E000000000000000062
:103D00000019000000164304044C4F49545F5350FF
:103D1000454544000000000000000D000000FA438B
:103D20000405414343454C00000000000000000032
:103D300000000021000000C84200FF000000000059
:103D40000000000000000000000000000000000073
:103D5000000080114011407132733433321312115C
:103D60003211129334131453523100210304060804
:103D70000B2D0A090705040241C011C0511253540A
:103D8000731211125152731473323100210204055F
:103D9000060708090806070624030201020001209D
:103DA000012011C00111003132137413143312F1C8
:103DB00012D3125100010223250607464423422153
:103DC0000001E0A0313213B433111211001120119F
:103DD00000523312133211200122248504230402DD
:103DE0000342410001E0A0511214131513153413BE
:103DF00032514001201152133231000122230405B7
:103E000004050423010382612001E01180113213B3
:103E10005415143332314021020100317231410214
:103E200023442302012201220102614001A01180EA
:103E300051121413341514331231400102010302DC
:103E4000012052111220212243042241022102A109
:103E50000001E0201140515374133211402102033C
:103E6000020302010011121132001141222322210A
:103E7000004102A1800160116011001132337413FE
:103E8000121140016203020321311211121140018B
:103E9000020102030201000100E121E0A011201251
:103EA0001173343331200162036240121112110088
:103EB000110100010201220001200100E1C0010006
:103EC0001180110012111312141334522001E20256
:103ED00021203112110011000100210201000140D6
:103EE000210002410001E06011401112111312146F
:103EF0001314133211002122034201022100010098
:103F000011001211001120010041600100C10001E7
:103F10004011200160114051121312131433123159
:103F20000001420322010221000140110031001171
:103F3000000100010001A0E10001A0018011203179
:103F4000529312110021C221002140310011201191
:103F500000010001E0E16001E01100117273123113
:103F60000021420301020102202140110011201111
:103F700060014011600100010221020001200140A6
:103F800001A051321312533211200102018221008B
:103F900021000100110031E0001100116021000139
:103FA00002010201010021200100016011001152F3
:103FB000131214135211004182010200010021402A
:103FC0001100110011A01100310011208122010106
:103FD000000201002100016011005213121314139A
:103FE00032310100020122014201002100010001E1
:103FF0001120110011201140710011400102210215
:104000000102010021022100010001001100121132
:104010001233123413321120010201420122010035
:1040200041000160112011001100110051123120D6
:1040300061020122020002010281201100121173AB
:10404000341332110041020182010061000180112C
:1040500000110091323140214201020200626140B0
:104060001152141354333100418201220001020025
:1040700041000160911211525120012201030102FD
:1040800002008261005133541514333100210201C2
:104090002203424102A180319213323100412203B6
:1040A0000201030022032201020140111233953361
:1040B0003101002201034203222122010261000199
:1040C0001100115213125312310041220322030036
:1040D00023020302010221203213141615171615AC
:1040E000331120016203020302032201A2414011A5
:1040F00012531413141332110100020102030203BC
:10410000020200022302032221203214163718175C
:10411000151312110021220302430243010302037B
:10412000822120111213141534151432110001626A
:104130002302030043020342012012131518193A07
:104140001715131100210203026304E302030203A3
:1041500002010240121314151715163412202122E1
:1041600043020300A3220100111215181C1E1D1981
:1041700016131100020103020304230403240304A1
:1041800043042304030203422011121415171836A6
:1041900015133121020302230203241E19151210E4
:1041A0000E0C0B0A0909090808080706060504048D
:1041B00004030404040000000000000000000027C5
:1041C000262123252325242722292A2A1C27282B98
:1041D00033322725222C3331303700000000000015
:1041E0000000000000000001FFFFE00000000000F0
:1041F0000001FFFFF000000000000001FFFFF800D9
:10420000000000000001FFFFFE00000000000003AE
:10421000FFFFFF00000000000003FFFFFFF00000B1
:104220000000000FFFFFFFFE00000003FFFFFC0087
:104230000007FC00007FFFFFFC0000000000000002
:104240001FFFFE000000000096918C87827D78732E
:104250006E69645F5A55504B46413C37322D2823D6
:104260001E19140F0A050004090E13181D22272C0D
:1042700031363B40454A4F54595E63686D72777CD6
:1042800081868B90959A9FA4A9AEB3AFAAA5A09B57
:10429000968F89837E78736E69645F5A55504B4759
:1042A000423E3935302C27231F1B16120E090501FB
:1042B00003070B1014191D22262B2F34393D4247BA
:1042C0004C51565B60656B70757B80868C92979DB8
:1042D000A3A9AFB2ACA6A09A948F827C76706B65CE
:1042E000605C57524E4A46413D3936322E2A2622CC
:1042F0001F1B1713100C08040102060A0E12161ACF
:104300001E22262B2F33383D41464B4F54595E64B5
:10431000696F747A80878D949BA2AAB1AEA69F978D
:104320009089826F68635E5955514D4946423F3CC2
:104330003835322E2B2824211E1A1714100D0A0688
:1043400003000306090D1014181C2024282C3034F7
:10435000393D41464A4F54585D62676D7379808795
:104360008F98A2ACB0A59A90867D766F55514D4A34
:104370004744413F3C3A383533312E2B2926232000
:104380001D1A1713100D0A070401010306090D1069
:1043900013171A1E22262A2E32363A3E42464A4E1B
:1043A00053575B5F64696E757C85909FB2A08D7D6D
:1043B0007067605A553E3C3A393736343332302FC5
:1043C0002E2C2A292724221F1C191613100D0A0728
:1043D0000402000305080A0D1013161A1D212529D1
:1043E0002D3135383C4043464A4D505356595B5E5B
:1043F0006165696F826D544D4A474442403E2E2E9E
:104400002D2C2C2B2A2A2929282726252423211F35
:104410001C1A1714100D0A07040101030507090CE3
:104420000E1013161A1D2124282C3033373A3D4024
:10443000424447484A4A4B4A48443D3019021621F3
:10444000282B2D2E2F2E2E06090C0F121517191B97
:104450001C1B1811040E2231383C3C3C3A383532D2
:104460002F2B2824201C1915110D09050102060AFD
:104470000E1115181C1F222527292A2B2B2926212E
:104480001911080004080A0A0A08070402000306B2
:1044900016181A1C1E20211F1712516063625F5DDF
:1044A0005956524E4A46423E3935312C2824201B5B
:1044B00017130E0A060102060A0F13171B1F2326E5
:1044C0002A2D313437393C3D3F3F3E3D39352F2889
:1044D000211C17151313131416A8ADB2B0ABA6A167
:1044E0009C97928D88837E79746F6A65605B565164
:1044F0004C47423D38332E29241F1A15100B060154
:1045000003080D12171C21262B30353A3F44494E23
:1045100053585D62676C71767B80858A8F94999E13
:10452000A3A80100454E41424C4500000000000098
:10453000000000000002000000000001015459507A
:104540004500000000000000000000000000030023
:10455000000040400102414354494F4E000000001A
:104560000000000000000004000000803F04034140
:104570004C545F4D41580000000000000000000056
:1045800005000000C842040452414449555300004C
:1045900000000000000000000009000000164304B5
:1045A000054D415247494E00000000000000000048
:1045B00000000D000000004000FF000000000000AF
:1045C00000000000000000000000000000000000EB
:1045D000005363686564756C6572206F76657272EE
:1045E000756E207461736B5B25755D202825752FB2
:1045F0002575290A005363686564756C65722073BC
:104600006C6970207461736B5B25755D202825755E
:104610002F25752F2575290A00010044454255476D
:10462000000000000000000000000000000000008A
:10463000000000FF0000000000000000000000007B
:1046400000000000000000000000000100524F4C7C
:104650004C0000000000000000000000000000000E
:104660000000803F01015049544348000000000011
:1046700000000000000000010000000040010254A2
:1046800048524F54544C4500000000000000000008
:1046900003000000404001035941570000000000A2
:1046A0000000000000000000000200000080400048
:1046B000FF000000000000000000000000000000FB
:1046C000000000000000000001004D4F4E49544F13
:1046D0005200000000000000000000000000000088
:1046E000000101564F4C545F50494E00000000003D
:1046F000000000000100000080BF0102435552523B
:104700005F50494E00000000000000000002000061
:104710000080BF0403564F4C545F4D554C5400006D
:1047200000000000000003009A9921410404414D5B
:10473000505F504552564F4C540000000000000797
:1047400000000088410405414D505F4F46465345E7
:1047500054000000000000000B00000000000306F1
:1047600043415041434954590000000000000000FB
:10477000000F0000404E4500FF0000000000000058
:104780000000000000000000000000000000000029
:104790004E414E494E495459494E46CDCCCC3D0A26
:1047A000D7233C17B7D13877CC2B329595E6241F09
:1047B000B14F0A000020410000C84200401C4620C2
:1047C000BCBE4CCA1B0E5AAEC59D740067AB36CE3C
:1047D000F6D66FDAFA02A5AD11241FBECFEFD1E2F3
:1047E000DEBFCDBF00E00CBF16E0A0E0B2E0EAE61D
:1047F000F5E403E00BBF02C007900D92AC33B107A4
:10480000D9F717E1ACE3B6E001C01D92AD3DB107A9
:10481000E1F717E4C6EDD7E400E006C022970109EE
:10482000FE010BBF0F94A59ECC3CD10780E008078A
:10483000A9F70E9453AF0D94A4A20C940000009716
:1048400039F0019791F480914A1790914B1704C069
:1048500080914C1790914D17DC01ED91FC910680F1
:10486000F781E02D199597FF089580E090E0089575
:104870000895E0917910F0917A100084F185E02D8F
:1048800089E790E119950895089580E00895609171
:10489000EC067091ED068091EE069091EF06609324
:1048A00072137093731380937413909375132DEC9C
:1048B0003CEC4CEC5DE30F94729B60937613709329
:1048C000771380937813909379138091E4069091F5
:1048D000E506A091E606B091E70680937A139093DF
:1048E0007B13A0937C13B0937D138091E00690918D
:1048F000E106A091E206B091E306809378149093CC
:104900007914A0937A14B0937B146091DC067091B3
:10491000DD068091DE069091DF0660938C13709324
:104920008D1380938E1390938F132DEC3CEC4CECF5
:104930005DE30F94729B6093901370939113809337
:104940009213909393138091D4069091D506A091E1
:10495000D606B091D7068093941390939513A093A5
:104960009613B09397138091D0069091D106A091A1
:10497000D206B091D3068093861490938714A093A7
:104980008814B0938914E7E5FCE080818D7F8083F3
:1049900008958091EC069091ED06A091EE06B091FD
:1049A000EF068093721390937313A0937413B093D4
:1049B00075138091E8069091E906A091EA06B091FE
:1049C000EB068093761390937713A0937813B093AC
:1049D00079138091E4069091E506A091E606B091E6
:1049E000E70680937A1390937B13A0937C13B09384
:1049F0007D138091E0069091E106A091E206B091CE
:104A0000E3068093781490937914A0937A14B0936A
:104A10007B148091DC069091DD06A091DE06B091BA
:104A2000DF0680938C1390938D13A0938E13B09315
:104A30008F138091D8069091D906A091DA06B09193
:104A4000DB068093901390939113A0939213B093ED
:104A500093138091D4069091D506A091D606B0917B
:104A6000D7068093941390939513A0939613B093C5
:104A700097138091D0069091D106A091D206B09163
:104A8000D3068093861490938714A0938814B093D0
:104A90008914E7E5FCE080818D7F808308958F9203
:104AA0009F92AF92BF92CF92DF92EF92FF9280904F
:104AB000CC069090CD06A090CE06B090CF0620E018
:104AC00030E0A901C501B4010F94A598882309F429
:104AD00077C0C090C006D090C106E090C206F090AA
:104AE000C30620E030E0A901C701B6010F94A598E4
:104AF000882309F465C08092721390927313A09278
:104B00007413B09275138092761390927713A092DB
:104B10007813B09279138091C8069091C906A0913C
:104B2000CA06B091CB0680937A1390937B13A0931F
:104B30007C13B0937D138091C4069091C506A0911B
:104B4000C606B091C7068093781490937914A09309
:104B50007A14B0937B14C0928C13D0928D13E09290
:104B60008E13F0928F13C0929013D0929113E09213
:104B70009213F09293138091BC069091BD06A09180
:104B8000BE06B091BF068093941390939513A093A3
:104B90009613B09397138091B8069091B906A0919F
:104BA000BA06B091BB068093861490938714A093A5
:104BB0008814B09389148091570C8D7F8093570C83
:104BC000FF90EF90DF90CF90BF90AF909F908F902D
:104BD000089510920A121092570B1092560B1092D1
:104BE000540B1092550B1092470A1092560A0895D2
:104BF0000F931F930091E2111091E3118091680AC5
:104C00009091690AA0916A0AB0916B0A1016110678
:104C10004CF4222717FD2095322F081719072A0771
:104C20003B076CF4BC01CD0161342FE172078105B3
:104C300091053CF060E47FE180E090E002C0C901B2
:104C4000B8011F910F910895A091D914B091DA1471
:104C5000ED91FC9111970280F381E02DCD01199522
:104C600008958091D9149091DA14DC01ED91FC91B2
:104C70000480F581E02D199508958091D9149091C3
:104C8000DA14DC01ED91FC910680F781E02D199595
:104C90000895462FA091D314B091D414ED91FC91B6
:104CA00011970680F781E02D682FCD0119950895A1
:104CB0008091AB129091AC128F3C24E092078CF063
:104CC000813525E092077CF0833D25E092076CF06A
:104CD000853526E092075CF0863D964054F484E0EA
:104CE000089580E0089581E0089582E0089583E0CA
:104CF000089585E008958091FC1182FD03C061E074
:104D00008AE3C7DF61E08BE3C4DF8091FC1181FDA2
:104D100003C061E08CE3BDDF61E08DE3BADF61E0F9
:104D20008FEFB7DF61E08FEFB4DF61E08FEFB1DFCE
:104D300061E08FEFAECF08958091FC1182FD03C03A
:104D400060E08AE3A6DF60E08BE3A3DF8091FC11E3
:104D500081FD03C060E08CE39CDF60E08DE399DFC0
:104D600060E08FEF96DF60E08FEF93DF60E08FEF22
:104D700090DF60E08FEF8DCF089561E08CE389CF05
:104D800008951092690B10926A0B10926B0B10929F
:104D90006C0B1092590B10925A0B10925B0B1092E5
:104DA0005C0B1092500B1092510B1092520B109200
:104DB000530B10924C0B10924D0B10924E0B109205
:104DC0004F0B1092430A1092440A1092450A109217
:104DD000460A10923F0A1092400A1092410A10921D
:104DE000420A0895CF93DF93FC01DB01C091B01418
:104DF000D091B114288139811B968C911B978F9388
:104E00001A968C911A978F9319968C9119978F9364
:104E100018968C9118978F9317968C9117978F935C
:104E200016968C9116978F9315968C9115978F9354
:104E300014968C9114978F9313968C9113978F934C
:104E400012968C9112978F9311968C9111978F9344
:104E50008C918F9383858F9382858F9381858F9398
:104E600080858F9387818F9386818F9385818F93A0
:104E700084818F9383818F9382818F9381818F939C
:104E800080818F93E0EBFAE083818F9382818F930F
:104E900081818F9380818F93E3E7F2E181818F930A
:104EA00080818F9384E39AE09F938F93DF93CF93D6
:104EB000D9015096ED91FC91519719958DB79EB7F8
:104EC00082960FB6F8949EBF0FBE8DBFDF91CF9133
:104ED000089580E00895E091B014F091B114A0819C
:104EE000B1818EE99CE09F938F93FF93EF9350964F
:104EF000ED91FC91519719950F900F900F900F9095
:104F000008950F931F93CF93DF93E091B014F09126
:104F1000B114A081B18184E39CE09F938F93FF93B0
:104F2000EF935096ED91FC91519719950F900F903A
:104F30000F900F90C0E0D0E00091CF141091D014EA
:104F4000D801ED91FC910284F385E02D40E0BE0193
:104F5000C80119952196C115B0E1DB0789F7E091E9
:104F6000B014F091B114A081B1818EE29CE09F93C6
:104F70008F93FF93EF935096ED91FC915197199574
:104F80000F900F900F900F9080E0DF91CF911F91C5
:104F90000F910895A091B014B091B114ED91FC91CE
:104FA00011970284F385E02D882319F067EF70E1F3
:104FB00002C063EF70E1CD0119958091B01490911A
:104FC000B114DC01ED91FC910284F385E02D6CEECF
:104FD00070E119950895E091B014F091B114A08199
:104FE000B18183E190E19F938F93FF93EF9350966C
:104FF000ED91FC91519719950F900F900F900F9094
:1050000080E008958091D9149091DA14DC01ED913B
:10501000FC91068CF78DE02D60E0199580E00895F5
:1050200080919A1190919B110097B9F02091550CA5
:1050300020FF13C0FC01E75BFF4F80819181039744
:1050400061F480917C1181FD08C08091480C83FB44
:10505000882780F991E08927089580E008958B30B2
:1050600031F018F4823028F402C08D3011F481E060
:10507000089580E008958091D3149091D414DC01B8
:10508000ED91FC910088F189E02D19959091560CD5
:1050900097FB222720F9821721F080FB97F9909344
:1050A000560C08958091B0149091B114DC01ED91EB
:1050B000FC910484F585E02D69EE71E11995E0918C
:1050C0009C11F0919D116091B0147091B1140488FD
:1050D000F589E02D8CE991E1199580E0089580E053
:1050E000089580E00895E091B014F091B114A0818A
:1050F000B18183E493E19F938F93FF93EF93509655
:10510000ED91FC91519719950F900F900F900F9082
:10511000089520E030E0FC01E20FF31F12821382B9
:10512000148215822C5F3F4F2C313105A1F7FC0111
:10513000168E0895FC011382128215821482178242
:10514000168210860895860F911D860F911DFC0111
:10515000828193810895DC01CB0118962C911897D8
:1051600031E0320F18963C931897FD01E20FF11DC4
:10517000E20FF11D73836283333010F018961C9296
:105180000895FC01968D81E0890F868FDF0124E070
:10519000929FA00DB11D112412964D935D936D93B6
:1051A0007C931597873008F0168ECB01BA010895CD
:1051B00024E0629F800D911D1124FC0162817381A6
:1051C0008481958108951F93CF93DF93FC0112850D
:1051D0008085833018F48F5F808706C0111104C06A
:1051E000C0E090E0019726C020852150A22FBB2768
:1051F000A7FDB095121614F011962DC0ED01CC0F3D
:10520000DD1FCE0FDF1F8881998168177907A4F70A
:105210001196AA0FBB1FAE0FBF1F8D939C93E5CFB6
:1052200028173907C4F4AA0FBB1FAE0FBF1F4D9339
:105230005C93CF5F2C2F332727FD3095D901129631
:10524000AA0FBB1FAE0FBF1F4D915C91D9011196E4
:10525000461757072CF3AA0FBB1FAE0FBF1F6D9346
:105260007C9381E0812782878085833010F4869546
:1052700001C08185E80FF11DE80FF11D8281938146
:10528000DF91CF911F910895ACE0B0E0EAE4F9E23C
:105290000D94139E7C018B01AB0142565F4F6E5201
:1052A0007F4FCE0101960F94262BA80146555F4FE4
:1052B000BE016F5F7F4FC7010F94262BC7012C964D
:1052C000E6E00D942F9E82E997E00F94A76F81E0AE
:1052D00098E00D943F69089588EB91E10D946994ED
:1052E00008958091F711882321F087E99FE00D94BC
:1052F000BA0E08958F929F92AF92BF92EF920F9342
:105300001F9380911E08882309F455C08150809313
:105310001E088091D51780648093D517609139124B
:1053200070913A12882777FD8095982F0F944799AE
:1053300020E030E04AE755E40F94AC980F943F1911
:105340004B015C016091561270915712882777FDCE
:105350008095982F0F94479920E030E04AE755E474
:105360000F94AC980F943F198B019C018091FD0D17
:1053700082608093FD0DE091CC0DF091CD0DEE2477
:10538000E39480911E088111E12C028CF38DE02DB5
:10539000B501A4018CEC9DE0199580911E08811146
:1053A0000AC08091FD0D8D7F8093FD0D8091D517F2
:1053B0008F7B8093D5171F910F91EF90BF90AF9087
:1053C0009F908F9008954F925F926F927F92AF92CD
:1053D000BF92CF92DF92EF92FF920F931F93CF93E2
:1053E000DF93CDB7DEB768970FB6F894DEBF0FBE78
:1053F000CDBFED86FE860F87188B298B3A8B4B8BA2
:105400005C8B6D8B7E8B8F8B988FE0900B12F09066
:105410000C1284E68E9DB0018F9D700D112488279B
:1054200077FD8095982F0F9447992B013C0120918F
:105430001B0230911C0240911D0250911E020F94DC
:10544000729B9B01AC016D857E858F8598890F9439
:10545000C8976093E00A7093E10A8093E20A909300
:10546000E30A2091420B3091430B4091440B509141
:10547000450BC301B2010F94729B9B01AC0169897A
:105480007A898B899C890F94C8976093E40A7093FA
:10549000E50A8093E60A9093E70A1E141F041CF1A4
:1054A000A092DC0AB092DD0AC092DE0AD092DF0A36
:1054B00060910D1270910E1280910F129091101246
:1054C0000F943F196093CB0A7093CC0A8093CD0A56
:1054D0009093CE0A6093D30A7093D40A8093D50A2E
:1054E0009093D60AF7C02BED3FE049E450E4C601A3
:1054F000B5010F94C7970F94001B6093DC0A70935B
:10550000DD0A8093DE0A9093DF0AC0903C08D090B9
:105510003D08E0903E08F0903F0820E030E040E099
:105520005FE360914C0870914D0880914E08909116
:105530004F080F94729B2B013C0160910B127091EC
:105540000C12882777FD8095982F0F9447999B011F
:10555000AC01C301B2010F94729B20E030E048EC33
:1055600052E40F94729B0F9483189B01AC01C70106
:10557000B6010F94A59887FF09C0C0903C08D09051
:105580003D08E0903E08F0903F082AC020E030E05F
:1055900040E05FE360914C0870914D0880914E08A7
:1055A00090914F080F94729B6B017C0160910B12DC
:1055B00070910C12882777FD8095982F0F9447994A
:1055C0009B01AC01C701B6010F94729B20E030E053
:1055D00048EC52E40F94729B0F9483186B017C018A
:1055E00060910B1270910C12882777FD8095982F8F
:1055F0000F94479920E030E048EC52E40F94729BFE
:105600009B01AC01C701B6010F94AC986B017C0102
:105610006093CB0A7093CC0A8093CD0A9093CE0A04
:1056200060910D1270910E1280910F1290911012D4
:105630000F943F19A70196015058870176010F94E6
:10564000DA186093CB0A7093CC0A8093CD0A9093BA
:10565000CE0A60910B1270910C12882777FD80950D
:10566000982F0F94479920E030E048EC52E40F94D3
:10567000729B9B01AC0160914C0870914D08809128
:105680004E0890914F080F94AC986B017C01609389
:10569000D30A7093D40A8093D50A9093D60A20E057
:1056A00030E0A90160910D1270910E1280910F12DD
:1056B000909110120F94A59887FF0CC0F7FAF09400
:1056C000F7F8F094C092D30AD092D40AE092D50AA7
:1056D000F092D60A1092D80A1092D90A1092DA0AD9
:1056E0001092DB0A1092CF0A1092D00A1092D10ABF
:1056F0001092D20A19821A821B821C821D821E827B
:105700001F82188619861A861B861C86AE014F5F7B
:105710005F4FBE01635F7F4F8BE298E00F945B7B2E
:1057200068960FB6F894DEBF0FBECDBFDF91CF9164
:105730001F910F91FF90EF90DF90CF90BF90AF90AF
:105740007F906F905F904F900895ACE0B0E0EBEAEF
:10575000FBE20D940E9E982E19861A861B861C86D7
:105760001D821E821F82188619821A821B821C8249
:105770008091580B9816D1F181E0981661F0981637
:1057800040F082E0981641F183E0981669F180E0DC
:105790002EC0F7DA29C09E012F5F3F4F4BED59E035
:1057A00063EF79E08BE298E00F94477AA090D60DF2
:1057B000B090D70DC090D80DD090D90DE980FA8067
:1057C0000B811C812D813E814F81588569857A85A9
:1057D0008B859C85F8DD08C04BED59E063EF79E0DF
:1057E0008BE298E00F945B7B9092580B81E02C96B3
:1057F000EBE00D942A9E0F931F93CF93DF9373DCFE
:1058000068EE73E080E090E01FDA03E613E1C8E59C
:10581000D3E1E091B014F091B114A081B1811F9354
:105820000F93FF93EF935096ED91FC91519719953B
:105830008DE198E00F94AB6868EB7BE080E090E04E
:1058400003DA8091B0149091B114DC01ED91FC91D8
:105850000480F581E02D19950F900F900F900F9017
:10586000181619065CF1E091B014F091B114A08102
:10587000B181DF93CF93FF93EF935096ED91FC911D
:10588000519719958DE198E00F94BE6868EB7BE025
:1058900080E090E0D9D98091B0149091B114DC01EE
:1058A000ED91FC910480F581E02D19950F900F90FA
:1058B0000F900F90181619060CF0ABCF80E0DF9117
:1058C000CF911F910F91089582E793E10F9468584B
:1058D0008CE893E10F94685886EA93E10D94685838
:1058E0000895CF93DF938091FF0790910008DC012A
:1058F000ED91FC91C9EDD1E10480F581E02D6CA121
:1059000019958091FF0790910008DC01ED91FC91C1
:105910000284F385E02D199520E030E04FE753E451
:105920000F94729B2DA13EA14FA158A50F94AC9846
:105930000F941499DC01CB014FEF50E060E070E070
:105940000F941D1980934E0CDF91CF910895CF9243
:10595000DF92EF92FF920F931F936B017C01261B46
:10596000370B480B590BCA01B9010F94D41ADC014B
:10597000CB0166277727601B710BA8010F941D19B7
:10598000BC01882777FD8095982F6C0D7D1D8E1D9D
:105990009F1D0F94AC1A1F910F91FF90EF90DF9015
:1059A000CF9008954F925F926F927F928F929F92C5
:1059B000AF92BF92EF92FF920F931F93CF93DF931B
:1059C00000D01F92CDB7DEB769837A838B839C8327
:1059D0007A018090A2149090A314A090A414B09087
:1059E000A5142A0157FF04C044245524441A550A1B
:1059F000662457FC6094762CA501940160E070E069
:105A00008AE793E40F94AC980F94149946165706BE
:105A100068067906F4F469817A818B819C810F9400
:105A200047992B013C01B701882777FD8095982F76
:105A30000F944799A50194010F94AC989B01AC0178
:105A4000C301B2010F94C8970F9414994B015C01E4
:105A500048C0A5019401C501B4010F94C897A501E0
:105A600094010F94729B9B01AC0160E070E08AE7A7
:105A700093E40F94AC980F9414992B013C011E14DD
:105A80001F04BCF489809A80AB80BC80860E971E70
:105A9000A81EB91E9701D7010F944B9C24EF31E04B
:105AA00040E050E00F94DA9C820E931EA41EB51EB7
:105AB00018C09701D7010F944B9C2CE03EEF4FEF9D
:105AC0005FEF0F94DA9C49015A0184189508A608E3
:105AD000B70889819A81AB81BC81880E991EAA1E64
